:100000000C9470000C94AC050C94D9050C949800D9
:100010000C9498000C9498000C9498000C94980000
:100020000C9498000C9498000C9498000C942A025C
:100030000C9498000C9498000C9498000C949800E0
:100040000C9406060C9498000C94E9020C94370367
:100050000C9498000C9498000C9498000C949800C0
:100060000C9498000C9498005465737420666F7516
:1000700072636865206F7074697175652032303005
:10008000300000000000240027002A0000000000CB
:10009000250028002B000000000023002600290076
:1000A000040404040404040402020202020203031E
:1000B0000303030301020408102040800102040826
:1000C00010200102040810200000000700020100B7
:1000D000000304060000000000000000A400A304C8
:1000E00011241FBECFEFD8E0DEBFCDBF11E0A0E0EE
:1000F000B1E0E8EAF0E102C005900D92A031B1074D
:10010000D9F711E0A0E1B1E001C01D92A23FB10713
:10011000E1F710E0C0EED0E004C02297FE010E949B
:100120004E08CC3DD107C9F70E94F9040C9452083F
:100130000C9400008091130190911401019690930A
:10014000140180931301089580E191E00E94E6007C
:1001500008950F931F9300E111E0C8016FEA70E06A
:100160000E943C0160ED77E080E090E00E94740620
:10017000C80165E070E00E943C016CED75E080E034
:1001800090E00E9474061F910F9108950F931F93A2
:1001900003EC11E0C80140E855E260E070E00E9425
:1001A0007203C80168E670E00E94750580E191E085
:1001B00065E070E00E94230280E06AE970E041E0BF
:1001C00050E00E9489051F910F910895FC018091D4
:1001D00015018C3090F480838F5F809315018150DE
:1001E00090E0FC01EE0FFF1FE80FF91FEA5EFE4FE3
:1001F00088EB9BE09283818308958FEF808308953D
:10020000FC0120812C30B8F58181992787FD9095DC
:1002100048E850E0481B590B440F551F440F551F29
:100220006417750784F08281992787FD909548E5CA
:1002300052E0481B590B440F551F440F551F6417BC
:1002400075070CF4AB0142505040CA01AA2797FD34
:10025000A095BA2F880F991FAA1FBB1F4FB7F894FC
:1002600030E0F901EE0FFF1FE20FF31FEA5EFE4FD1
:10027000928381834FBF0895AF92BF92CF92DF9256
:10028000EF92FF920F931F93CF93DF93EC019B01AB
:1002900082E0603278070CF048C077FF03C020E0AE
:1002A00030E005C0653B710514F024EB30E000D070
:1002B00000D0B901882777FD8095982F29813327B1
:1002C00027FD3095B8E8AB2EB12CA21AB30AAA0CC0
:1002D000BB1CAA0CBB1CCC24B7FCC094DC2CEA8150
:1002E000FF27E7FDF09528E532E02E1B3F0B220F9C
:1002F000331F220F331F442737FD4095542FEDB78E
:10030000FEB7218332834383548320E030E040E012
:1003100050E0E4EBEE2EF12C012D112D0E9474071C
:100320009B010F900F900F900F90CE01B9010E948A
:100330000001DF91CF911F910F91FF90EF90DF901F
:10034000CF90BF90AF900895CF92DF92EF92FF923F
:100350001F93CF93DF93EC01162F7A0169018881F7
:100360008C3008F064C0862F61E00E94D506888139
:1003700090E0FC01EE0FFF1FE80FF91FEA5EFE4F51
:100380001F738081807C812B808380E292E08E19B4
:100390009F0964E070E00E94E807698380E699E0C5
:1003A0008C199D0964E070E00E94E8076A83A881C7
:1003B0008A2F6CE00E94DC07682F70E0AB01440FCD
:1003C000551F460F571F440F551F440F551F20E060
:1003D00030E0C901840F951FFC01EE0FFF1FE80FED
:1003E000F91FEA5EFE4F808186FD15C02F5F3F4FEB
:1003F0002C30310571F724C01092800082E0809388
:1004000081001092850010928400B19A80916F0053
:10041000826080936F008A2F90E0FC01EE0FFF1F37
:10042000E80FF91FEA5EFE4F808180648083888137
:10043000DF91CF911F91FF90EF90DF90CF900895C3
:10044000672BD1F2E8CF40E252E020E639E00E948B
:10045000A40108951F920F920FB60F9211242F93AB
:100460003F934F935F936F937F938F939F93AF933C
:10047000BF93EF93FF9380913A0187FF05C01092DD
:100480008500109284002BC020913A01332727FD6C
:1004900030958091150190E02817390704F5809177
:1004A0003A01992787FD9095FC01EE0FFF1FE80F99
:1004B000F91FEA5EFE4F808186FF11C080913A01EC
:1004C000992787FD9095FC01EE0FFF1FE80FF91F9C
:1004D000EA5EFE4F80818F7360E00E944107809149
:1004E0003A018F5F80933A0120913A01332727FD2B
:1004F00030958091150190E0281739070CF04EC017
:1005000080913A018C300CF049C0209184003091E8
:10051000850080913A01992787FD9095FC01EE0FA7
:10052000FF1FE80FF91FEA5EFE4F81819281280FBD
:10053000391F309389002093880080913A019927D0
:1005400087FD9095FC01EE0FFF1FE80FF91FEA5E93
:10055000FE4F808186FF2BC080913A01992787FD4D
:100560009095FC01EE0FFF1FE80FF91FEA5EFE4FAA
:1005700080818F7361E00E94410719C080E49CE98B
:1005800005C0809184009091850004969093890025
:10059000809388008FEF80933A0109C08091840096
:1005A00090918500049680549C4940F3EACFFF91D6
:1005B000EF91BF91AF919F918F917F916F915F91DB
:1005C0004F913F912F910F900FBE0F901F90189554
:1005D00008951F920F920FB60F9211242F933F93FD
:1005E0004F938F939F93EF93FF938091C00082FD71
:1005F0001DC04091C60020917B0130917C012F5F8E
:100600003F4F2F73307080917D0190917E012817AC
:10061000390771F0E0917B01F0917C01E55CFE4FC0
:10062000408330937C0120937B0102C08091C600FF
:10063000FF91EF919F918F914F913F912F910F904B
:100640000FBE0F901F901895E091CF01F091D0014F
:10065000E05CFF4F8191919120813181821B930B4E
:100660008F739070892B11F00E94E80208951F92F9
:100670000F920FB60F9211242F933F938F939F9356
:10068000EF93FF932091BF013091C0018091C10190
:100690009091C2012817390731F48091C1008F7DF4
:1006A0008093C10014C0E091C101F091C201E158F2
:1006B000FE4F20818091C1019091C20101968F73FC
:1006C00090709093C2018093C1012093C600FF9166
:1006D000EF919F918F913F912F910F900FBE0F90AF
:1006E0001F901895AF92BF92DF92EF92FF920F93F7
:1006F0001F93CF93DF93EC017A018B01DD2440300F
:1007000081EE580780E0680780E0780711F0DD246B
:10071000D39491E0A92EB12CEC89FD89DD2069F0FC
:10072000C50108A002C0880F991F0A94E2F78083D0
:1007300060E079E08DE390E005C0108260E874E845
:100740008EE190E0A80197010E94FB072150304004
:1007500040405040569547953795279580E1203089
:10076000380720F0DD2011F0DD24D6CFE889F989A3
:100770003083EA89FB89208319A2EE89FF894081B1
:1007800021E030E0C9010C8C02C0880F991F0A9447
:10079000E2F7482B4083EE89FF894081C9010D8C27
:1007A00002C0880F991F0A94E2F7482B4083EE8914
:1007B000FF894081C9010E8C02C0880F991F0A94DD
:1007C000E2F7482B4083EE89FF8980810F8C02C0BD
:1007D000220F331F0A94E2F7209528232083DF910C
:1007E000CF911F910F91FF90EF90DF90BF90AF904E
:1007F0000895DC011C96ED91FC911D97E05CFF4F84
:100800002191319180819181281B390B2F73307098
:10081000C9010895DC011C96ED91FC911D97E05CE7
:10082000FF4F20813181E054F040DF01AE5BBF4FCC
:100830008D919C9111972817390719F42FEF3FEFED
:1008400007C08D919C91E80FF91F8081282F30E01F
:10085000C9010895DC011C96ED91FC911D97E05CA7
:10086000FF4F20813181E054F040DF01AE5BBF4F8C
:100870008D919C9111972817390719F42FEF3FEFAD
:1008800010C08D919C911197E80FF91F20818D91D7
:100890009C91119701968F73907011969C938E93F3
:1008A00030E0C9010895DC0191968C9191978823DD
:1008B00039F05496ED91FC915597808186FFF9CFE0
:1008C00091961C920895CF93DF93EC01EE85FF85FE
:1008D000E05CFF4F20813181E054F0402F5F3F4FBB
:1008E0002F733070DF01AE5BBF4F8D919C911197DC
:1008F00028173907D1F3E05CFF4F80819181E054E4
:10090000F040E80FF91F6083EE85FF85E05CFF4F44
:1009100031832083EE89FF89208181E090E00F8C74
:1009200002C0880F991F0A94E2F7282B208381E0E8
:1009300089A3EC89FD8980818064808381E090E0D7
:10094000DF91CF9108951092C6011092C50188EEF3
:1009500093E0A0E0B0E08093C7019093C801A0931A
:10096000C901B093CA0184E091E09093C4018093DF
:10097000C3018BE391E09093D0018093CF018FE787
:1009800091E09093D2018093D10185EC90E0909317
:10099000D4018093D30184EC90E09093D6018093AE
:1009A000D50180EC90E09093D8018093D70181EC41
:1009B00090E09093DA018093D90182EC90E09093DB
:1009C000DC018093DB0186EC90E09093DE01809364
:1009D000DD0184E08093DF0183E08093E00187E024
:1009E0008093E10185E08093E20181E08093E3015F
:1009F0000895CF93DF930E949A060E94C600C4E236
:100A0000D3E00E94A9002097E1F30E942403F9CFCC
:100A1000CF92DF92EF92FF920F931F93CF93DF93CA
:100A20007C016B018A01C0E0D0E00FC0D6016D915E
:100A30006D01D701ED91FC910190F081E02DC7018E
:100A40000995C80FD91F015010400115110571F704
:100A5000CE01DF91CF911F910F91FF90EF90DF902A
:100A6000CF900895EF92FF920F931F93CF93DF9350
:100A70007C018B01C0E0D0E0F8010F5F1F4F649153
:100A8000662359F0D701ED91FC910190F081E02DA2
:100A9000C7010995C80FD91FEFCFCE01DF91CF91C4
:100AA0001F910F91FF90EF900895EF92FF920F9397
:100AB0001F938C01DC01ED91FC910190F081E02D00
:100AC0006DE009957C01D801ED91FC910190F081D8
:100AD000E02DC8016AE009959C012E0D3F1DC9015A
:100AE0001F910F91FF90EF900895EF92FF920F9357
:100AF0001F937C010E9432058C01C7010E9455059D
:100B00009C01200F311FC9011F910F91FF90EF90A1
:100B10000895823000F5E82FF0E0EE0FFF1FEB5153
:100B2000FE4F71836083882319F08130A1F408C0DF
:100B3000809169008C7F842B80936900E89A0895E6
:100B400080916900440F551F440F551F837F842BEC
:100B500080936900E99A08951F920F920FB60F9241
:100B600011242F933F934F935F936F937F938F93B2
:100B70009F93AF93BF93EF93FF938091E501909183
:100B8000E601892B29F0E091E501F091E601099554
:100B9000FF91EF91BF91AF919F918F917F916F9155
:100BA0005F914F913F912F910F900FBE0F901F902B
:100BB00018951F920F920FB60F9211242F933F9307
:100BC0004F935F936F937F938F939F93AF93BF9355
:100BD000EF93FF938091E7019091E801892B29F031
:100BE000E091E701F091E8010995FF91EF91BF9144
:100BF000AF919F918F917F916F915F914F913F91B5
:100C00002F910F900FBE0F901F9018951F920F926B
:100C10000FB60F9211242F933F938F939F93AF930F
:100C2000BF938091ED019091EE01A091EF01B09101
:100C3000F0013091F1010196A11DB11D232F2D5F0F
:100C40002D3720F02D570196A11DB11D2093F101E4
:100C50008093ED019093EE01A093EF01B093F0012A
:100C60008091E9019091EA01A091EB01B091EC0132
:100C70000196A11DB11D8093E9019093EA01A09313
:100C8000EB01B093EC01BF91AF919F918F913F9198
:100C90002F910F900FBE0F901F9018959FB7F8944B
:100CA0002091E9013091EA014091EB015091EC0172
:100CB00086B5A89B06C08F3F21F02F5F3F4F4F4F57
:100CC0005F4F9FBF542F432F322F2227280F311DF4
:100CD000411D511D82E0220F331F441F551F8A956D
:100CE000D1F7B901CA010895EF92FF920F931F93B4
:100CF000CF93DF937B018C010E944E06EB010EC067
:100D00000E944E066C1B7D0B685E7340C8F308940E
:100D1000E108F10801091109C851DC4FE114F1049F
:100D20000105110569F7DF91CF911F910F91FF9098
:100D3000EF900895789484B5826084BD84B5816015
:100D400084BD85B5826085BD85B5816085BDEEE6D3
:100D5000F0E0808181608083E1E8F0E010828081B2
:100D600082608083808181608083E0E8F0E0808120
:100D700081608083E1EBF0E0808184608083E0EB40
:100D8000F0E0808181608083EAE7F0E08081846028
:100D90008083808182608083808181608083808184
:100DA000806880831092C1000895CF93DF93482F0D
:100DB00050E0CA018C549F4FFC01349140565F4F64
:100DC000FA018491882369F190E0880F991FFC0152
:100DD000EE57FF4FA591B491FC01E457FF4FC59129
:100DE000D491662351F42FB7F8948C91932F90955A
:100DF00089238C93888189230BC0623061F42FB7DB
:100E0000F8948C91932F909589238C938881832BD0
:100E100088832FBF06C09FB7F8948C91832B8C9347
:100E20009FBFDF91CF910895833071F0843028F413
:100E30008130A1F0823021F514C08630B1F08730C6
:100E4000D1F08430E9F404C0809180008F7703C032
:100E5000809180008F7D80938000089584B58F7786
:100E600002C084B58F7D84BD08958091B0008F77D6
:100E70008093B00008958091B0008F7D8093B00082
:100E80000895FF920F931F93F62E482F50E0CA014A
:100E900088539F4FFC012491CA018C549F4FFC0141
:100EA000149140565F4FFA0104910023C9F02223A8
:100EB00019F0822F0E941407E02FF0E0EE0FFF1FC1
:100EC000E457FF4FA591B4919FB7F894FF2021F408
:100ED0008C911095812302C08C91812B8C939FBFA4
:100EE0001F910F91FF9008952F923F924F925F9222
:100EF0006F927F928F929F92AF92BF92CF92DF922A
:100F0000EF92FF920F931F93DF93CF93CDB7DEB78E
:100F10003B014C0119012A016D897E898F89988DC9
:100F20006A197B098C099D09621A730A840A950A59
:100F3000A40193010E94BD07E218F30804091509F2
:100F4000A80197010E941D082A0D3B1D4C1D5D1D27
:100F5000B901CA01CF91DF911F910F91FF90EF90DE
:100F6000DF90CF90BF90AF909F908F907F906F90C9
:100F70005F904F903F902F900895629FD001739F94
:100F8000F001829FE00DF11D649FE00DF11D929F25
:100F9000F00D839FF00D749FF00D659FF00D992764
:100FA000729FB00DE11DF91F639FB00DE11DF91F88
:100FB000BD01CF0111240895991B79E004C0991F48
:100FC000961708F0961B881F7A95C9F780950895A3
:100FD00097FB092E07260AD077FD04D049D006D00A
:100FE00000201AF4709561957F4F0895F6F790955B
:100FF00081959F4F0895A1E21A2EAA1BBB1BFD01EC
:101000000DC0AA1FBB1FEE1FFF1FA217B307E407E7
:10101000F50720F0A21BB30BE40BF50B661F771F3F
:10102000881F991F1A9469F760957095809590951F
:101030009B01AC01BD01CF01089597FB092E052648
:101040000ED057FD04D0D7DF0AD0001C38F45095DD
:101050004095309521953F4F4F4F5F4F0895F6F7DC
:1010600090958095709561957F4F8F4F9F4F089514
:10107000AA1BBB1B51E107C0AA1FBB1FA617B707BE
:1010800010F0A61BB70B881F991F5A95A9F78095DA
:101090009095BC01CD010895EE0FFF1F0590F491CE
:0810A000E02D0994F894FFCF44
:1010A8000000000063040805F9032A040A04530435
:00000001FF
